:100000000C942A000C9447000C9447000C94470071
:100010000C9447000C9447000C9447000C94470044
:100020000C9447000C9447000C9447000C94470034
:100030000C9447000C9412160C9447000C94470043
:100040000C9447000C9447000C9447000C94470014
:100050000C94470011241FBECFE5D8E0DEBFCDBF12
:1000600011E0A0E6B0E0EAE9FBE302C005900D92E2
:10007000AA3AB107D9F711E0AAEAB1E001C01D928E
:10008000AE3AB107E1F70E9453160C94CB1D0C94C5
:100090000000EF92FF920F931F937B018C0120E0F1
:1000A00030E040E05FE40E94490388238CF0C801FF
:1000B000B70120E030E040E05FE40E94C1010E940F
:1000C000A9039B01AC01205030404040504806C07D
:1000D000C801B7010E94A9039B01AC01B901CA0183
:1000E0001F910F91FF90EF900895A0E0B0E0EBE733
:1000F000F0E00C948B1DDC012B01FA019C919230F5
:1001000008F439C1EB018881823008F433C194309E
:1001100069F4843009F02FC111969C91119789815F
:10012000981709F428C1A1E0B1E025C1843009F491
:1001300021C18230A9F4923009F01DC19A01AD01AC
:1001400088E0EA010990AE01E90109929E0181501F
:10015000C1F7E201898111969C918923818308C1AD
:10016000923009F407C112962D903C901397EB0141
:100170008A819B811496AD90BD90CD90DC901797AD
:10018000EC80FD800E811F819101281B390BB90184
:1001900037FF04C066277727621B730B6032710537
:1001A0000CF061C0121613066CF537014801062EDB
:1001B00004C096948794779467940A94D2F721E0C8
:1001C00030E040E050E004C0220F331F441F551FB1
:1001D0006A95D2F721503040404050402E213F21B7
:1001E00040235123211531054105510521F021E01E
:1001F00030E040E050E079018A01E628F72808293C
:1002000019293CC0232BD1F1260E371E350146019A
:10021000062E04C096948794779467940A94D2F734
:1002200021E030E040E050E004C0220F331F441FC3
:10023000551F6A95D2F721503040404050402A2146
:100240003B214C215D21211531054105510521F04E
:1002500021E030E040E050E059016A01A628B728CB
:10026000C828D9280BC0821593052CF01C01AA249C
:10027000BB24650103C0EE24FF24870111969C91E5
:10028000D20111968C91981709F445C0992339F041
:10029000A80197012A193B094C095D0906C0A6016E
:1002A00095012E193F09400B510B57FD08C01182D3
:1002B0003382228224833583468357831DC081E0A5
:1002C00081833382228288279927DC01821B930B4A
:1002D000A40BB50B84839583A683B7830DC0220F2F
:1002E000331F441F551F24833583468357838281E0
:1002F000938101979383828324813581468157813D
:10030000DA01C9010197A109B1098F5F9F4FAF4F72
:10031000BF4328F30BC0918333822282EA0CFB1C7B
:100320000C1D1D1DE482F5820683178383E0808304
:10033000248135814681578157FF1AC0C901AA27F8
:1003400097FDA095BA2F81709070A070B0705695EF
:10035000479537952795822B932BA42BB52B848318
:100360009583A683B7838281938101969383828349
:10037000DF0101C0D201CD01CDB7DEB7E2E10C94BF
:10038000A71DA0E2B0E0E7ECF1E00C94971D6983B3
:100390007A838B839C832D833E834F835887E9E048
:1003A000EE2EF12CEC0EFD1ECE010196B7010E943F
:1003B000D2048E010F5E1F4FCE010596B8010E9438
:1003C000D2048A8991E089278A8BC701B801AE01DE
:1003D000475E5F4F0E9475000E94FD03A096E6E015
:1003E0000C94B31DA0E2B0E0E8EFF1E00C94971D8F
:1003F00069837A838B839C832D833E834F835887C5
:10040000F9E0EF2EF12CEC0EFD1ECE010196B701A6
:100410000E94D2048E010F5E1F4FCE010596B801D7
:100420000E94D204C701B801AE01475E5F4F0E942F
:1004300075000E94FD03A096E6E00C94B31DA0E2B7
:10044000B0E0E5E2F2E00C948B1D69837A838B8344
:100450009C832D833E834F835887CE010196BE0136
:10046000675F7F4F0E94D204CE010596BE016F5E8A
:100470007F4F0E94D2049985923088F0898982301A
:10048000C8F0943019F4823051F404C0843029F457
:10049000923081F481E091E0C6C0923049F420E0CE
:1004A0009A858A89981321E02A87CE010996BBC0D4
:1004B000823049F420E09A858A89981321E02A8BBA
:1004C000CE014196B0C02D843E844F8458886D88FB
:1004D0007E888F88988CEE24FF248701AA24BB2471
:1004E000650140E050E060E070E0E0E0F0E0C10174
:1004F00081709070892BE9F0E60CF71C081D191D1E
:100500009A01AB012A0D3B1D4C1D5D1D80E090E062
:10051000A0E0B0E0E614F7040805190520F481E036
:1005200090E0A0E0B0E0BA01A901480F591F6A1F8E
:100530007B1FAA0CBB1CCC1CDD1C97FE08C081E0F5
:1005400090E0A0E0B0E0A82AB92ACA2ADB2A3196B6
:10055000E032F10549F0660C771C881C991C569412
:10056000479437942794C3CFFA85EA892B893C892D
:100570008B859C85280F391F2E5F3F4F17C0CA01FE
:1005800081709070892B61F016950795F794E79428
:1005900080E090E0A0E0B0E8E82AF92A0A2B1B2BC3
:1005A00076956795579547952F5F3F4F77FDE7CF36
:1005B0000CC0440F551F661F771F17FD4160EE0CDE
:1005C000FF1C001F111F21503040403090E05907A0
:1005D00090E0690790E4790760F32B8F3C8FDB0193
:1005E000CA018F779070A070B07080349105A1051A
:1005F000B10561F447FD0AC0E114F10401051105DC
:1006000029F0405C5F4F6F4F7F4F40781A8EFE1786
:1006100011F081E08A8F4D8F5E8F6F8F78A383E01A
:10062000898FCE0149960E94FD03A096E2E10C94C9
:10063000A71DA8E1B0E0EFE1F3E00C94971D6983FA
:100640007A838B839C832D833E834F83588789E0F5
:10065000E82EF12CEC0EFD1ECE010196B7010E9492
:10066000D2048E010F5E1F4FCE010596B8010E9485
:10067000D2048985823040F08989823028F0C70110
:10068000B8010E944A0501C08FEF6896E6E00C941D
:10069000B31DA8E1B0E0EFE4F3E00C94971D69838B
:1006A0007A838B839C832D833E834F83588789E095
:1006B000E82EF12CEC0EFD1ECE010196B7010E9432
:1006C000D2048E010F5E1F4FCE010596B8010E9425
:1006D000D2048985823040F08989823028F0C701B0
:1006E000B8010E944A0501C08FEF6896E6E00C94BD
:1006F000B31DA8E1B0E0EFE7F3E00C94971D698328
:100700007A838B839C832D833E834F83588789E034
:10071000E82EF12CEC0EFD1ECE010196B7010E94D1
:10072000D2048E010F5E1F4FCE010596B8010E94C4
:10073000D2048985823040F08989823028F0C7014F
:10074000B8010E944A0501C081E06896E6E00C9479
:10075000B31DACE0B0E0EFEAF3E00C949B1D6983BD
:100760007A838B839C83CE010196BE016B5F7F4FA2
:100770000E94D2048D81823061F1823050F1843048
:1007800021F48E81882351F12EC02F81388537FDC9
:1007900020C06E812F3131051CF06623F9F023C093
:1007A0008EE190E0821B930B29853A854B855C8511
:1007B00004C056954795379527958A95D2F76623B5
:1007C000B1F050954095309521953F4F4F4F5F4F79
:1007D0000EC020E030E040E050E009C02FEF3FEFD6
:1007E0004FEF5FE704C020E030E040E050E8B9019F
:1007F000CA012C96E2E00C94B71DDF92EF92FF92B3
:100800000F931F93FC01E480F58006811781D1804E
:100810008081823048F480E090E0A0E1B0E0E82AF6
:10082000F92A0A2B1B2BA5C0843009F49FC0823003
:1008300021F4EE24FF24870105C0E114F104010531
:10084000110519F4E0E0F0E096C0628173819FEF3A
:10085000623879070CF05BC022E83FEF261B370BAC
:100860002A3131052CF020E030E040E050E02AC091
:10087000B801A701022E04C0769567955795479554
:100880000A94D2F781E090E0A0E0B0E004C0880FC5
:10089000991FAA1FBB1F2A95D2F70197A109B10979
:1008A0008E219F21A023B1230097A105B10521F03E
:1008B00081E090E0A0E0B0E09A01AB01282B392B59
:1008C0004A2B5B2BDA01C9018F779070A070B07052
:1008D00080349105A105B10539F427FF09C0205CDA
:1008E0003F4F4F4F5F4F04C0215C3F4F4F4F5F4F13
:1008F000E0E0F0E02030A0E03A07A0E04A07A0E402
:100900005A0710F0E1E0F0E079018A0127C0603871
:10091000710564F5FB01E158FF4FD801C7018F77DE
:100920009070A070B07080349105A105B10539F4C4
:10093000E7FE0DC080E490E0A0E0B0E004C08FE3EB
:1009400090E0A0E0B0E0E80EF91E0A1F1B1F17FFA1
:1009500005C016950795F794E794319687E01695AC
:100960000795F794E7948A95D1F705C0EE24FF2404
:100970008701EFEFF0E06E2F679566276795902F60
:100980009F77D794DD24D7948E2F8695492F462BB9
:10099000582F5D29B701CA011F910F91FF90EF9069
:1009A000DF900895FC01DB01408151812281622F9B
:1009B0006F7770E0221F2227221F9381892F880FD3
:1009C000822B282F30E0991F9927991F11969C930D
:1009D000119721153105A9F54115510561057105DD
:1009E00011F482E037C082E89FEF13969C938E93B8
:1009F00012979A01AB0167E0220F331F441F551F66
:100A00006A95D1F783E08C930DC0220F331F441FEA
:100A1000551F12968D919C911397019713969C9355
:100A20008E931297203080E0380780E0480780E4FA
:100A3000580758F314962D933D934D935C93179755
:100A400008952F3F310579F4411551056105710570
:100A500019F484E08C93089564FF03C081E08C93C3
:100A600012C01C9210C02F57304013963C932E9307
:100A7000129783E08C9387E0440F551F661F771F02
:100A80008A95D1F7706414964D935D936D937C9322
:100A9000179708951F93DC01FB019C91923008F495
:100AA00047C08081823008F443C0943051F41196DD
:100AB0001C91843099F58181682F70E0611B710968
:100AC0003FC0843021F0923031F48230B9F181811D
:100AD000882389F12DC011961C9111978230F1F075
:100AE00081811817D9F412962D913C911397828128
:100AF00093818217930794F028173907BCF0149656
:100B00008D919D910D90BC91A02D248135814681C0
:100B10005781281739074A075B0718F4112341F05A
:100B20000AC082179307A407B50740F4112319F0F0
:100B300061E070E005C06FEF7FEF02C060E070E041
:100B4000CB011F910895DF93CF93CDB7DEB72797E1
:100B50000FB6F894DEBF0FBECDBF89836A834B8387
:100B60008B81882309F074C08981282F30E03F836E
:100B70002E838E819F818130910559F12E813F8195
:100B8000223031052CF48E819F81009769F0D2C00C
:100B90002E813F812230310589F18E819F81833002
:100BA000910509F440C0C6C0AAE3B0E0EAE3F0E072
:100BB0008081482F8A81282F30E081E090E0022E4A
:100BC00002C0880F991F0A94E2F7809584238C93C2
:100BD000B1C0A7E3B0E0E7E3F0E08081482F8A816D
:100BE000282F30E081E090E0022E02C0880F991F8C
:100BF0000A94E2F7809584238C939CC0A4E3B0E030
:100C0000E4E3F0E08081482F8A81282F30E081E002
:100C100090E0022E02C0880F991F0A94E2F7809597
:100C200084238C9387C0A1E3B0E0E1E3F0E080810E
:100C3000482F8A81282F30E081E090E0022E02C008
:100C4000880F991F0A94E2F7809584238C9372C0D1
:100C50008B81813009F06EC08981282F30E03D837F
:100C60002C838C819D818130910549F12C813D81BE
:100C7000223031052CF48C819D81009761F05AC09F
:100C80002C813D812230310571F18C819D81833031
:100C90009105E9F14FC0AAE3B0E0EAE3F0E080811A
:100CA000482F8A81282F30E081E090E0022E02C098
:100CB000880F991F0A94E2F7842B8C933BC0A7E31B
:100CC000B0E0E7E3F0E08081482F8A81282F30E010
:100CD00081E090E0022E02C0880F991F0A94E2F78B
:100CE000842B8C9327C0A4E3B0E0E4E3F0E08081A0
:100CF000482F8A81282F30E081E090E0022E02C048
:100D0000880F991F0A94E2F7842B8C9313C0A1E3F8
:100D1000B0E0E1E3F0E08081482F8A81282F30E0C5
:100D200081E090E0022E02C0880F991F0A94E2F73A
:100D3000842B8C9327960FB6F894DEBF0FBECDBFE1
:100D4000CF91DF910895DF93CF93CDB7DEB727978B
:100D50000FB6F894DEBF0FBECDBF89836A834B8385
:100D60008B81882309F074C08981282F30E03F836C
:100D70002E838E819F818130910559F12E813F8193
:100D8000223031052CF48E819F81009769F0D2C00A
:100D90002E813F812230310589F18E819F81833000
:100DA000910509F440C0C6C0ABE3B0E0EBE3F0E06E
:100DB0008081482F8A81282F30E081E090E0022E48
:100DC00002C0880F991F0A94E2F7809584238C93C0
:100DD000B1C0A8E3B0E0E8E3F0E08081482F8A8169
:100DE000282F30E081E090E0022E02C0880F991F8A
:100DF0000A94E2F7809584238C939CC0A5E3B0E02D
:100E0000E5E3F0E08081482F8A81282F30E081E0FF
:100E100090E0022E02C0880F991F0A94E2F7809595
:100E200084238C9387C0A2E3B0E0E2E3F0E080810A
:100E3000482F8A81282F30E081E090E0022E02C006
:100E4000880F991F0A94E2F7809584238C9372C0CF
:100E50008B81813009F06EC08981282F30E03D837D
:100E60002C838C819D818130910549F12C813D81BC
:100E7000223031052CF48C819D81009761F05AC09D
:100E80002C813D812230310571F18C819D8183302F
:100E90009105E9F14FC0ABE3B0E0EBE3F0E0808116
:100EA000482F8A81282F30E081E090E0022E02C096
:100EB000880F991F0A94E2F7842B8C933BC0A8E318
:100EC000B0E0E8E3F0E08081482F8A81282F30E00D
:100ED00081E090E0022E02C0880F991F0A94E2F789
:100EE000842B8C9327C0A5E3B0E0E5E3F0E080819C
:100EF000482F8A81282F30E081E090E0022E02C046
:100F0000880F991F0A94E2F7842B8C9313C0A2E3F5
:100F1000B0E0E2E3F0E08081482F8A81282F30E0C2
:100F200081E090E0022E02C0880F991F0A94E2F738
:100F3000842B8C9327960FB6F894DEBF0FBECDBFDF
:100F4000CF91DF910895DF93CF9300D000D00F921F
:100F5000CDB7DEB78A836B8319828A81282F30E070
:100F60003D832C834C815D814130510541F18C8161
:100F70009D818230910534F42C813D81211531050C
:100F800061F052C04C815D814230510551F18C813C
:100F90009D8183309105B9F147C0E9E3F0E080819C
:100FA000282F30E08B81882F90E0A90102C0559551
:100FB00047958A95E2F7CA018170898335C0E6E3D7
:100FC000F0E08081282F30E08B81882F90E0A9010C
:100FD00002C0559547958A95E2F7CA0181708983C9
:100FE00023C0E3E3F0E08081282F30E08B81882F5D
:100FF00090E0A90102C0559547958A95E2F7CA018C
:101000008170898311C0E0E3F0E08081282F30E017
:101010008B81882F90E0A90102C0559547958A954C
:10102000E2F7CA018170898389810F900F900F9038
:101030000F900F90CF91DF910895DF93CF9300D061
:1010400000D000D0CDB7DEB789836A838A81882338
:1010500079F58981282F30E03E832D838D819E8113
:1010600081309105C9F02D813E81223031052CF46B
:101070008D819E81009761F050C02D813E8122308C
:10108000310571F08D819E818330910569F045C0F5
:10109000EAE3F0E0108241C0E7E3F0E010823DC0F7
:1010A000E4E3F0E0108239C0E1E3F0E0108235C003
:1010B0008A81813091F58981282F30E03C832B8310
:1010C0008B819C8181309105D1F02B813C81223034
:1010D00031052CF48B819C81009761F01EC02B811F
:1010E0003C812230310581F08B819C8183309105D8
:1010F00081F013C0EAE3F0E08FEF80830EC0E7E3F6
:10110000F0E08FEF808309C0E4E3F0E08FEF8083AD
:1011100004C0E1E3F0E08FEF808326960FB6F894E9
:10112000DEBF0FBECDBFCF91DF910895DF93CF9388
:1011300000D000D0CDB7DEB789836A838981282F9C
:1011400030E03C832B838B819C8181309105D1F0F1
:101150002B813C81223031052CF48B819C810097BE
:1011600061F01EC02B813C812230310581F08B81E2
:101170009C818330910581F013C0EBE3F0E08A811C
:1011800080830EC0E8E3F0E08A81808309C0E5E354
:10119000F0E08A81808304C0E2E3F0E08A8180830A
:1011A0000F900F900F900F90CF91DF910895DF93E4
:1011B000CF9300D000D0CDB7DEB78A8319828A8161
:1011C000282F30E03C832B838B819C8181309105DB
:1011D000D1F02B813C81223031052CF48B819C8114
:1011E000009761F01EC02B813C812230310581F0D7
:1011F0008B819C818330910581F013C0E9E3F0E09D
:10120000808189830EC0E6E3F0E08081898309C094
:10121000E3E3F0E08081898304C0E0E3F0E08081D3
:10122000898389810F900F900F900F90CF91DF915C
:101230000895DF93CF93CDB7DEB76D970FB6F894CF
:10124000DEBF0FBECDBF8D8F80E064E040E00E9426
:10125000A30680E065E040E00E94A30681E06D8D7A
:101260000E94960880E066E041E00E94A30680E0CC
:1012700090E0A0E8BFE3898F9A8FAB8FBC8F698D18
:101280007A8D8B8D9C8D20E030E04AEF54E40E94F3
:101290001F02DC01CB018D8B9E8BAF8BB88F6D89CC
:1012A0007E898F89988D20E030E040E85FE30E94DE
:1012B000790388232CF481E090E09C8B8B8B3FC0DA
:1012C0006D897E898F89988D20E03FEF4FE757E445
:1012D0000E94190318164CF5698D7A8D8B8D9C8DA3
:1012E00020E030E040E251E40E941F02DC01CB012B
:1012F000BC01CD010E944900DC01CB019C8B8B8B92
:101300000FC088EC90E09A8B898B89899A89019724
:10131000F1F79A8B898B8B899C8901979C8B8B8B9E
:101320008B899C89009769F714C06D897E898F89A4
:10133000988D0E944900DC01CB019C8B8B8B8B89A3
:101340009C89988B8F878F8598890197F1F7988B67
:101350008F8780E066E040E00E94A30680E090E096
:10136000A0E8BFE38B879C87AD87BE876B857C85B4
:101370008D859E8520E030E04AEF54E40E941F02F4
:10138000DC01CB018F839887A987BA876F81788525
:1013900089859A8520E030E040E85FE30E94790388
:1013A00088232CF481E090E09E838D833FC06F8181
:1013B000788589859A8520E03FEF4FE757E40E94C2
:1013C000190318164CF56B857C858D859E8520E06C
:1013D00030E040E251E40E941F02DC01CB01BC017D
:1013E000CD010E944900DC01CB019E838D830FC09B
:1013F00088EC90E09C838B838B819C810197F1F733
:101400009C838B838D819E8101979E838D838D81AB
:101410009E81009769F714C06F81788589859A85C8
:101420000E944900DC01CB019E838D838D819E81CA
:101430009A83898389819A810197F1F79A838983B5
:101440006D960FB6F894DEBF0FBECDBFCF91DF9182
:101450000895DF93CF93CDB7DEB76D970FB6F894AD
:10146000DEBF0FBECDBF8D8F80E064E041E00E9403
:10147000A30680E065E040E00E94A30681E06D8D58
:101480000E94960880E066E041E00E94A30680E0AA
:1014900090E0A0E8BFE3898F9A8FAB8FBC8F698DF6
:1014A0007A8D8B8D9C8D20E030E04AEF54E40E94D1
:1014B0001F02DC01CB018D8B9E8BAF8BB88F6D89AA
:1014C0007E898F89988D20E030E040E85FE30E94BC
:1014D000790388232CF481E090E09C8B8B8B3FC0B8
:1014E0006D897E898F89988D20E03FEF4FE757E423
:1014F0000E94190318164CF5698D7A8D8B8D9C8D81
:1015000020E030E040E251E40E941F02DC01CB0108
:10151000BC01CD010E944900DC01CB019C8B8B8B6F
:101520000FC088EC90E09A8B898B89899A89019702
:10153000F1F79A8B898B8B899C8901979C8B8B8B7C
:101540008B899C89009769F714C06D897E898F8982
:10155000988D0E944900DC01CB019C8B8B8B8B8981
:101560009C89988B8F878F8598890197F1F7988B45
:101570008F8780E066E040E00E94A30680E090E074
:10158000A0E8BFE38B879C87AD87BE876B857C8592
:101590008D859E8520E030E04AEF54E40E941F02D2
:1015A000DC01CB018F839887A987BA876F81788503
:1015B00089859A8520E030E040E85FE30E94790366
:1015C00088232CF481E090E09E838D833FC06F815F
:1015D000788589859A8520E03FEF4FE757E40E94A0
:1015E000190318164CF56B857C858D859E8520E04A
:1015F00030E040E251E40E941F02DC01CB01BC015B
:10160000CD010E944900DC01CB019E838D830FC078
:1016100088EC90E09C838B838B819C810197F1F710
:101620009C838B838D819E8101979E838D838D8189
:101630009E81009769F714C06F81788589859A85A6
:101640000E944900DC01CB019E838D838D819E81A8
:101650009A83898389819A810197F1F79A83898393
:101660006D960FB6F894DEBF0FBECDBFCF91DF9160
:101670000895DF93CF93CDB7DEB7E8970FB6F89410
:10168000DEBF0FBECDBF81E061E00E941D0880E09B
:1016900064E041E00E94A30580E065E041E00E9433
:1016A000A30580E066E041E00E94A30580E090E0B1
:1016B000A0E2B2E48DAB9EABAFABB8AF6DA97EA993
:1016C0008FA998AD20E030E04AEF54E40E941F0259
:1016D000DC01CB0189AB9AABABABBCAB69A97AA9F6
:1016E0008BA99CA920E030E040E85FE30E947903E9
:1016F00088232CF481E090E098AB8FA73FC069A9C4
:101700007AA98BA99CA920E03FEF4FE757E40E94FC
:10171000190318164CF56DA97EA98FA998AD20E084
:1017200030E040E251E40E941F02DC01CB01BC0129
:10173000CD010E944900DC01CB0198AB8FA70FC0FF
:1017400088EC90E09EA78DA78DA59EA50197F1F747
:101750009EA78DA78FA598A9019798AB8FA78FA556
:1017600098A9009769F714C069A97AA98BA99CA9BF
:101770000E944900DC01CB0198AB8FA78FA598A9E7
:101780009CA78BA78BA59CA50197F1F79CA78BA77E
:1017900088E30E94190980E090E0A0E8BFE38FA3EE
:1017A00098A7A9A7BAA76FA178A589A59AA520E0AF
:1017B00030E04AEF54E40E941F02DC01CB018BA30E
:1017C0009CA3ADA3BEA36BA17CA18DA19EA120E093
:1017D00030E040E85FE30E94790388232CF481E045
:1017E00090E09AA389A33FC06BA17CA18DA19EA18B
:1017F00020E03FEF4FE757E40E94190318164CF51D
:101800006FA178A589A59AA520E030E040E251E4D7
:101810000E941F02DC01CB01BC01CD010E944900E6
:10182000DC01CB019AA389A30FC088EC90E098A3B8
:101830008F8F8F8D98A10197F1F798A38F8F89A132
:101840009AA101979AA389A389A19AA1009769F700
:1018500014C06BA17CA18DA19EA10E944900DC0156
:10186000CB019AA389A389A19AA19E8F8D8F8D8D7B
:101870009E8D0197F1F79E8F8D8F8CE00E94190944
:1018800080E090E0A0E8BFE3898F9A8FAB8FBC8F98
:10189000698D7A8D8B8D9C8D20E030E04AEF54E489
:1018A0000E941F02DC01CB018D8B9E8BAF8BB88F0A
:1018B0006D897E898F89988D20E030E040E85FE374
:1018C0000E94790388232CF481E090E09C8B8B8B21
:1018D0003FC06D897E898F89988D20E03FEF4FE76B
:1018E00057E40E94190318164CF5698D7A8D8B8D7B
:1018F0009C8D20E030E040E251E40E941F02DC01B8
:10190000CB01BC01CD010E944900DC01CB019C8BC5
:101910008B8B0FC088EC90E09A8B898B89899A8990
:101920000197F1F79A8B898B8B899C8901979C8B06
:101930008B8B8B899C89009769F714C06D897E8990
:101940008F89988D0E944900DC01CB019C8B8B8B89
:101950008B899C89988B8F878F8598890197F1F760
:10196000988B8F8781E00E94190980E090E0A0E0C9
:10197000B0E48B879C87AD87BE876B857C858D8522
:101980009E8520E030E04AEF54E40E941F02DC0113
:10199000CB018F839887A987BA876F8178858985DE
:1019A0009A8520E030E040E85FE30E9479038823D5
:1019B0002CF481E090E09E838D833FC06F81788519
:1019C00089859A8520E03FEF4FE757E40E9419038D
:1019D00018164CF56B857C858D859E8520E030E062
:1019E00040E251E40E941F02DC01CB01BC01CD01A9
:1019F0000E944900DC01CB019E838D830FC088ECDF
:101A000090E09C838B838B819C810197F1F79C8371
:101A10008B838D819E8101979E838D838D819E8195
:101A2000009769F714C06F81788589859A850E942F
:101A30004900DC01CB019E838D838D819E819A8339
:101A4000898389819A810197F1F79A83898386E056
:101A50000E941909E8960FB6F894DEBF0FBECDBFFD
:101A6000CF91DF910895DF93CF9300D00F92CDB740
:101A7000DEB78A836B838A81882F90E00024969555
:101A800087950794969587950794982F802D982F82
:101A90008B81890F8058898389810E9419090F9051
:101AA0000F900F90CF91DF910895DF93CF9300D0E7
:101AB0000F92CDB7DEB79B838A8319820EC08981CE
:101AC000282F30E08A819B81FC01E20FF31F808187
:101AD0000E94290A89818F5F89838981282F30E0BC
:101AE0008A819B81FC01E20FF31F8081882339F7F3
:101AF0000F900F900F90CF91DF910895DF93CF93C8
:101B000000D000D00F92CDB7DEB78B837D836C837E
:101B10008B81882F90E00896880F991F880F991F56
:101B2000880F991F8A838A810E94190919820EC021
:101B30008981282F30E08C819D81FC01E20FF31F09
:101B400080810E94290A89818F5F898389818830F9
:101B500078F30F900F900F900F900F90CF91DF912F
:101B60000895DF93CF9300D00F92CDB7DEB789836E
:101B70006A834B838A816B810E94330D89810E9425
:101B8000290A0F900F900F90CF91DF9108950F9336
:101B90001F93DF93CF93CDB7DEB764970FB6F8945A
:101BA000DEBF0FBECDBF698B7A8B8B8B9C8B1A826D
:101BB00089899A89AB89BC89BB230CF066C0898965
:101BC0009A89AB89BC89B095A095909581959F4FD6
:101BD000AF4FBF4F898B9A8BAB8BBC8B42C08A8136
:101BE000082F10E089899A89AB89BC892AE030E006
:101BF00040E050E0BC01CD010E94701DDC01CB0132
:101C0000282F205DCE010396FC01E00FF11F2083F9
:101C100089899A89AB89BC892AE030E040E050E0AC
:101C2000BC01CD010E94701DDC01CB019C01AD0106
:101C300089899A89AB89BC89821B930BA40BB50B4C
:101C40002AE030E040E050E0BC01CD010E94701D70
:101C5000DA01C901898B9A8BAB8BBC8B8A818F5F30
:101C60008A8389899A89AB89BC890097A105B105C6
:101C700009F0B5CF8A81282F30E0CE010396FC0110
:101C8000E20FF31F8DE280836CC089899A89AB894A
:101C9000BC890097A105B10559F48A81282F30E04D
:101CA000CE010396FC01E20FF31F80E3808359C04D
:101CB00089899A89AB89BC89181619061A061B06E8
:101CC0000CF04FC042C08A81082F10E089899A89A0
:101CD000AB89BC892AE030E040E050E0BC01CD0196
:101CE0000E94701DDC01CB01282F205DCE010396E0
:101CF000FC01E00FF11F208389899A89AB89BC8997
:101D00002AE030E040E050E0BC01CD010E94701DAF
:101D1000DC01CB019C01AD0189899A89AB89BC8921
:101D2000821B930BA40BB50B2AE030E040E050E09F
:101D3000BC01CD010E94701DDA01C901898B9A8B0B
:101D4000AB8BBC8B8A818F5F8A8389899A89AB89A7
:101D5000BC890097A105B10509F0B5CF8A818150F2
:101D60008A838A81898310C08981282F332727FDA0
:101D70003095CE010396FC01E20FF31F80810E9493
:101D8000290A898181508983898188236CF7649627
:101D90000FB6F894DEBF0FBECDBFCF91DF911F917C
:101DA0000F910895DF93CF93CDB7DEB780E060E069
:101DB00041E00E94A30580E061E041E00E94A305AC
:101DC00080E062E041E00E94A30580E063E041E042
:101DD0000E94A305CF91DF9108950F931F93DF9386
:101DE000CF93CDB7DEB7CB57D0400FB6F894DEBF58
:101DF0000FBECDBFFE01E958FF4F91838083FE01E6
:101E0000E758FF4F6083FE01E958FF4F80819181C1
:101E1000CC01A0E0B0E029E038E040E050E0BC01B7
:101E2000CD010E942F1DDC01CB0128E631E040E00E
:101E300050E0BC01CD010E944E1DDA01C901FE0136
:101E4000EB58FF4F91838083DE01AB58BF4FFE01FB
:101E5000EB58FF4F80819181969587959695879550
:101E600011969C938E93FE01E758FF4F8081282F97
:101E700030E0EC963FAF2EAFEC97EC968EAD9FAD79
:101E8000EC978130910549F0EC96EEADFFADEC9703
:101E9000E230F10509F410C347C5FE01ED58FF4FCC
:101EA00011821082F9C280E060E041E00E94A30646
:101EB00080E061E040E00E94A30680E062E040E054
:101EC0000E94A30680E063E040E00E94A306FE01BA
:101ED000E359FF4F80E090E0A0E8B0E48083918375
:101EE000A283B3838E0107591F4FFE01E359FF4FB1
:101EF000608171818281938120E030E04AEF54E477
:101F00000E941F02DC01CB01F80180839183A28330
:101F1000B383FE01E759FF4F608171818281938114
:101F200020E030E040E85FE30E947903882344F436
:101F3000FE01E959FF4F81E090E09183808364C006
:101F4000FE01E759FF4F608171818281938120E01A
:101F50003FEF4FE757E40E94190318160CF043C0F7
:101F6000FE01E359FF4F608171818281938120E0FE
:101F700030E040E251E40E941F02DC01CB018E01FF
:101F800009591F4FBC01CD010E944900DC01CB0162
:101F9000F801918380831FC0FE01EB59FF4F88EC4D
:101FA00090E091838083FE01EB59FF4F8081918106
:101FB0000197F1F7FE01EB59FF4F91838083DE011A
:101FC000A959BF4FFE01E959FF4F808191810197C7
:101FD00011969C938E93FE01E959FF4F8081918168
:101FE0000097D1F627C08E0109591F4FFE01E7590E
:101FF000FF4F60817181828193810E944900DC01E1
:10200000CB01F80191838083DE01AD59BF4FFE0102
:10201000E959FF4F808191818D939C93FE01ED5989
:10202000FF4F808191810197F1F7FE01ED59FF4F3C
:102030009183808380E060E040E00E94A30680E01E
:1020400061E041E00E94A30680E062E040E00E947F
:10205000A30680E063E040E00E94A306FE01E15A8F
:10206000FF4F80E090E0A0E8B0E480839183A283FA
:10207000B3838E01055A1F4FFE01E15AFF4F608165
:1020800071818281938120E030E04AEF54E40E9424
:102090001F02DC01CB01F80180839183A283B3830B
:1020A000FE01E55AFF4F608171818281938120E0BA
:1020B00030E040E85FE30E947903882344F4FE01A6
:1020C000E75AFF4F81E090E09183808364C0FE0176
:1020D000E55AFF4F608171818281938120E03FEF5B
:1020E0004FE757E40E94190318160CF043C0FE0195
:1020F000E15AFF4F608171818281938120E030E05D
:1021000040E251E40E941F02DC01CB018E01075A1C
:102110001F4FBC01CD010E944900DC01CB01F80139
:10212000918380831FC0FE01E95AFF4F88EC90E045
:1021300091838083FE01E95AFF4F8081918101974D
:10214000F1F7FE01E95AFF4F91838083DE01A75A20
:10215000BF4FFE01E75AFF4F808191810197119691
:102160009C938E93FE01E75AFF4F808191810097E7
:10217000D1F627C08E01075A1F4FFE01E55AFF4FC7
:1021800060817181828193810E944900DC01CB01D1
:10219000F80191838083DE01AB5ABF4FFE01E75AFD
:1021A000FF4F808191818D939C93FE01EB5AFF4FED
:1021B000808191810197F1F7FE01EB5AFF4F9183E6
:1021C000808380E060E040E00E94A30680E061E060
:1021D00040E00E94A30680E062E041E00E94A30686
:1021E00080E063E040E00E94A306FE01EF5AFF4F4B
:1021F00080E090E0A0E8B0E480839183A283B38381
:102200008E01035B1F4FFE01EF5AFF4F608171810A
:102210008281938120E030E04AEF54E40E941F0263
:10222000DC01CB01F80180839183A283B383FE019B
:10223000E35BFF4F608171818281938120E030E018
:1022400040E85FE30E947903882344F4FE01E55BE4
:10225000FF4F81E090E09183808364C0FE01E35BE7
:10226000FF4F608171818281938120E03FEF4FE7D2
:1022700057E40E94190318160CF043C0FE01EF5AF0
:10228000FF4F608171818281938120E030E040E2E4
:1022900051E40E941F02DC01CB018E01055B1F4F40
:1022A000BC01CD010E944900DC01CB01F801918302
:1022B00080831FC0FE01E75BFF4F88EC90E09183B5
:1022C0008083FE01E75BFF4F808191810197F1F7E9
:1022D000FE01E75BFF4F91838083DE01A55BBF4F6B
:1022E000FE01E55BFF4F80819181019711969C93E0
:1022F0008E93FE01E55BFF4F808191810097D1F6BF
:1023000027C08E01055B1F4FFE01E35BFF4F60811D
:102310007181828193810E944900DC01CB01F80127
:1023200091838083DE01A95BBF4FFE01E55BFF4F18
:10233000808191818D939C93FE01E95BFF4F8081A9
:1023400091810197F1F7FE01E95BFF4F9183808353
:1023500080E060E040E00E94A30680E061E040E0B1
:102360000E94A30680E062E040E00E94A30680E0B5
:1023700063E041E00E94A306FE01ED5BFF4F80E0B9
:1023800090E0A0E8B0E480839183A283B3838E01C0
:10239000015C1F4FFE01ED5BFF4F60817181828107
:1023A000938120E030E04AEF54E40E941F02DC01F8
:1023B000CB01F80180839183A283B383FE01FF9652
:1023C000608171818281938120E030E040E85FE3A9
:1023D0000E94790388232CF481E090E09EAF8DAFBA
:1023E00046C0FE01FF96608171818281938120E069
:1023F0003FEF4FE757E40E941903181664F5FE01FA
:10240000ED5BFF4F608171818281938120E030E03C
:1024100040E251E40E941F02DC01CB01BC01CD016E
:102420000E944900DC01CB019EAF8DAF0FC088EC4C
:1024300090E09CAF8BAF8BAD9CAD0197F1F79CAF5B
:102440008BAF8DAD9EAD01979EAF8DAF8DAD9EAD27
:10245000009769F716C0FE01FF9660817181828145
:1024600093810E944900DC01CB019EAF8DAF8DAD01
:102470009EAD9AAF89AF89AD9AAD0197F1F79AAF4A
:1024800089AFDE01AD58BF4FFE01ED58FF4F80818F
:10249000918101968D939C93FE01ED58FF4FDE01D3
:1024A000AB58BF4F208131818D919C911197281796
:1024B000390708F4F8CC38C2FE01EF58FF4F1182FB
:1024C000108223C280E060E040E00E94A30680E02A
:1024D00061E040E00E94A30680E062E040E00E94EC
:1024E000A30680E063E041E00E94A30680E090E064
:1024F000A0EAB0E48DAB9EABAFABB8AF6DA97EA93F
:102500008FA998AD20E030E04AEF54E40E941F020A
:10251000DC01CB0189AB9AABABABBCAB69A97AA9A7
:102520008BA99CA920E030E040E85FE30E9479039A
:1025300088232CF481E090E098AB8FA73FC069A975
:102540007AA98BA99CA920E03FEF4FE757E40E94AE
:10255000190318164CF56DA97EA98FA998AD20E036
:1025600030E040E251E40E941F02DC01CB01BC01DB
:10257000CD010E944900DC01CB0198AB8FA70FC0B1
:1025800088EC90E09EA78DA78DA59EA50197F1F7F9
:102590009EA78DA78FA598A9019798AB8FA78FA508
:1025A00098A9009769F714C069A97AA98BA99CA971
:1025B0000E944900DC01CB0198AB8FA78FA598A999
:1025C0009CA78BA78BA59CA50197F1F79CA78BA730
:1025D00080E060E040E00E94A30680E061E040E02F
:1025E0000E94A30680E062E041E00E94A30680E032
:1025F00063E040E00E94A30680E090E0A0EAB0E43F
:102600008FA398A7A9A7BAA76FA178A589A59AA50E
:1026100020E030E04AEF54E40E941F02DC01CB01CD
:102620008BA39CA3ADA3BEA36BA17CA18DA19EA1F6
:1026300020E030E040E85FE30E94790388232CF437
:1026400081E090E09AA389A33FC06BA17CA18DA1FA
:102650009EA120E03FEF4FE757E40E9419031816B0
:102660004CF56FA178A589A59AA520E030E040E25D
:1026700051E40E941F02DC01CB01BC01CD010E948C
:102680004900DC01CB019AA389A30FC088EC90E03C
:1026900098A38F8F8F8D98A10197F1F798A38F8FB3
:1026A00089A19AA101979AA389A389A19AA10097C8
:1026B00069F714C06BA17CA18DA19EA10E94490065
:1026C000DC01CB019AA389A389A19AA19E8F8D8F4A
:1026D0008D8D9E8D0197F1F79E8F8D8F80E060E04C
:1026E00040E00E94A30680E061E041E00E94A30672
:1026F00080E062E040E00E94A30680E063E040E00A
:102700000E94A30680E090E0A0EAB0E4898F9A8F4F
:10271000AB8FBC8F698D7A8D8B8D9C8D20E030E0E6
:102720004AEF54E40E941F02DC01CB018D8B9E8B8B
:10273000AF8BB88F6D897E898F89988D20E030E0CE
:1027400040E85FE30E94790388232CF481E090E065
:102750009C8B8B8B3FC06D897E898F89988D20E003
:102760003FEF4FE757E40E94190318164CF5698DA7
:102770007A8D8B8D9C8D20E030E040E251E40E9408
:102780001F02DC01CB01BC01CD010E944900DC012C
:10279000CB019C8B8B8B0FC088EC90E09A8B898B44
:1027A00089899A890197F1F79A8B898B8B899C8902
:1027B00001979C8B8B8B8B899C89009769F714C040
:1027C0006D897E898F89988D0E944900DC01CB013B
:1027D0009C8B8B8B8B899C89988B8F878F85988915
:1027E0000197F1F7988B8F8780E060E041E00E94CD
:1027F000A30680E061E040E00E94A30680E062E082
:1028000040E00E94A30680E063E040E00E94A3064F
:1028100080E090E0A0EAB0E48B879C87AD87BE871C
:102820006B857C858D859E8520E030E04AEF54E401
:102830000E941F02DC01CB018F839887A987BA878A
:102840006F81788589859A8520E030E040E85FE3F4
:102850000E94790388232CF481E090E09E838D838D
:102860003FC06F81788589859A8520E03FEF4FE7EB
:1028700057E40E94190318164CF56B857C858D85ED
:102880009E8520E030E040E251E40E941F02DC011E
:10289000CB01BC01CD010E944900DC01CB019E832C
:1028A0008D830FC088EC90E09C838B838B819C810F
:1028B0000197F1F79C838B838D819E8101979E8385
:1028C0008D838D819E81009769F714C06F81788513
:1028D00089859A850E944900DC01CB019E838D8306
:1028E0008D819E819A83898389819A810197F1F7ED
:1028F0009A838983DE01AF58BF4FFE01EF58FF4F27
:102900008081918101968D939C93FE01EF58FF4F3A
:10291000DE01AB58BF4F208131818D919C91119781
:102920002817390708F4CECDC558DF4F0FB6F894F5
:10293000DEBF0FBECDBFCF91DF911F910F910895E4
:10294000DF93CF93CDB7DEB72A970FB6F894DEBFEB
:102950000FBECDBF8A836B834C8380E889838A81D5
:10296000282F30E03A87298789859A85813091051B
:1029700031F029853A852230310529F007C0898157
:102980008063898303C08981806289838B81282F3A
:1029900030E038872F838F8198858130910541F011
:1029A0002F8138852230310519F489818860898327
:1029B0008C81282F30E03E832D838D819E8187304E
:1029C000910571F12D813E81283031055CF48D81B6
:1029D0009E818530910589F02D813E81263031051B
:1029E000A1F03EC08D819E818830910521F12D811D
:1029F0003E812930310551F133C0AAE2B0E0EAE26C
:102A0000F0E080818B7F8C932BC0AAE2B0E0EAE2F9
:102A1000F0E080818B7F8C9389818260898320C0E4
:102A2000AAE2B0E0EAE2F0E080818B7F8C938981BA
:102A30008460898315C0AAE2B0E0EAE2F0E0808118
:102A40008B7F8C938981866089830AC0AAE2B0E07B
:102A5000EAE2F0E0808184608C9389818E608983D2
:102A6000AAE2B0E0EAE2F0E0808180618C93AAE221
:102A7000B0E0EAE2F0E0808188608C93E0E4F0E08E
:102A800089818083E9E2F0E083E380832A960FB6B0
:102A9000F894DEBF0FBECDBFCF91DF910895DF93D5
:102AA000CF930F92CDB7DEB78983EBE2F0E0808160
:102AB000829586958770882F90E08170907000973E
:102AC000A1F3ECE2F0E0898180830F90CF91DF9158
:102AD0000895DF93CF93CDB7DEB7EBE2F0E08081CE
:102AE0008823DCF7ECE2F0E08081CF91DF9108955C
:102AF000DF93CF9300D00F92CDB7DEB79B838A834D
:102B000019828981282F30E08A819B81FC01E20FA4
:102B1000F31F80810E944F1589818F5F898389818E
:102B2000282F30E08A819B81FC01E20FF31F808116
:102B3000882339F70F900F900F90CF91DF91089570
:102B40000F931F93DF93CF9300D00F92CDB7DEB7D3
:102B50009B838A8319828981282F30E08A819B8117
:102B60008C01020F131F0E946915F80180830FC0AA
:102B700089818F5F89838981282F30E08A819B81B9
:102B80008C01020F131F0E946915F801808389814F
:102B9000282F30E08A819B81FC01E20FF31F8081A6
:102BA0008D3059F08981282F30E08A819B81FC018A
:102BB000E20FF31F80818823D9F68981282F30E026
:102BC0008A819B81FC01E20FF31F10820F900F900E
:102BD0000F90CF91DF911F910F910895DF93CF93C5
:102BE00000D000D0CDB7DEB79A8389837C836B8316
:102BF000AAE2B0E0EAE2F0E0808180688C9389810B
:102C00009A819093AB018093AA018B819C819093D0
:102C1000AD018093AC010F900F900F900F90CF916A
:102C2000DF9108951F920F920FB60F9211242F93E8
:102C30003F934F935F936F937F938F939F93AF9344
:102C4000BF93EF93FF93DF93CF93CDB7DEB7809120
:102C5000AA019091AB01009799F08091AC019091FD
:102C6000AD01009769F0A091AA01B091AB01ECE22F
:102C7000F0E080818C93E091AC01F091AD01099579
:102C8000CF91DF91FF91EF91BF91AF919F918F9184
:102C90007F916F915F914F913F912F910F900FBE58
:102CA0000F901F901895DF93CF9300D0CDB7DEB76C
:102CB00082E061E00E941D080E94D20E80E061E087
:102CC00048E00E94A0140E94390B80E00E94D319B2
:102CD00081E00E94E2190E94B31B8A838A818130BD
:102CE00021F40E94171C8983F0CF81E00E9419090A
:102CF00080E690E00E94550D0E940F1AFFCF0F93BF
:102D00001F93DF93CF93CDB7DEB7C555D0400FB635
:102D1000F894DEBF0FBECDBFFE01EB5AFF4F80839C
:102D2000FE01EB5AFF4F8081813009F0BFC182E084
:102D300063E041E00E94A306FE01EF5AFF4F80E0EE
:102D400090E0A8ECB2E480839183A283B3838E01E8
:102D5000035B1F4FFE01EF5AFF4F6081718182813B
:102D6000938120E030E04AEF54E40E941F02DC012E
:102D7000CB01F80180839183A283B383FE01E35BDF
:102D8000FF4F608171818281938120E030E040E8D3
:102D90005FE30E947903882344F4FE01E55BFF4F63
:102DA00081E090E09183808364C0FE01E35BFF4F8C
:102DB000608171818281938120E03FEF4FE757E48A
:102DC0000E94190318160CF043C0FE01EF5AFF4F82
:102DD000608171818281938120E030E040E251E4A2
:102DE0000E941F02DC01CB018E01055B1F4FBC015D
:102DF000CD010E944900DC01CB01F8019183808361
:102E00001FC0FE01E75BFF4F88EC90E09183808359
:102E1000FE01E75BFF4F808191810197F1F7FE0191
:102E2000E75BFF4F91838083DE01A55BBF4FFE010F
:102E3000E55BFF4F80819181019711969C938E9362
:102E4000FE01E55BFF4F808191810097D1F627C09D
:102E50008E01055B1F4FFE01E35BFF4F60817181B7
:102E6000828193810E944900DC01CB01F8019183AA
:102E70008083DE01A95BBF4FFE01E55BFF4F8081D0
:102E800091818D939C93FE01E95BFF4F808191813D
:102E90000197F1F7FE01E95BFF4F9183808382E0A8
:102EA00063E040E00E94A306FE01ED5BFF4F80E07F
:102EB00090E0A8E4B3E480839183A283B3838E017E
:102EC000015C1F4FFE01ED5BFF4F608171818281CC
:102ED000938120E030E04AEF54E40E941F02DC01BD
:102EE000CB01F80180839183A283B383FE01FF9617
:102EF000608171818281938120E030E040E85FE36E
:102F00000E94790388232CF481E090E09EAF8DAF7E
:102F100046C0FE01FF96608171818281938120E02D
:102F20003FEF4FE757E40E941903181664F5FE01BE
:102F3000ED5BFF4F608171818281938120E030E001
:102F400040E251E40E941F02DC01CB01BC01CD0133
:102F50000E944900DC01CB019EAF8DAF0FC088EC11
:102F600090E09CAF8BAF8BAD9CAD0197F1F79CAF20
:102F70008BAF8DAD9EAD01979EAF8DAF8DAD9EADEC
:102F8000009769F716C0FE01FF966081718182810A
:102F900093810E944900DC01CB019EAF8DAF8DADC6
:102FA0009EAD9AAF89AF89AD9AAD0197F1F79AAF0F
:102FB00089AF82E063E041E00E94A30680E090E0F8
:102FC000A8ECB2E48DAB9EABAFABB8AF6DA97EA958
:102FD0008FA998AD20E030E04AEF54E40E941F0230
:102FE000DC01CB0189AB9AABABABBCAB69A97AA9CD
:102FF0008BA99CA920E030E040E85FE30E947903C0
:1030000088232CF481E090E098AB8FA73FC069A99A
:103010007AA98BA99CA920E03FEF4FE757E40E94D3
:10302000190318164CF56DA97EA98FA998AD20E05B
:1030300030E040E251E40E941F02DC01CB01BC0100
:10304000CD010E944900DC01CB0198AB8FA70FC0D6
:1030500088EC90E09EA78DA78DA59EA50197F1F71E
:103060009EA78DA78FA598A9019798AB8FA78FA52D
:1030700098A9009769F714C069A97AA98BA99CA996
:103080000E944900DC01CB0198AB8FA78FA598A9BE
:103090009CA78BA78BA59CA50197F1F79CA78BA755
:1030A00082E063E040E00E94A30671C1FE01EB5A9A
:1030B000FF4F8081823009F06AC182E063E041E025
:1030C0000E94A30680E090E0A8ECB2E48FA398A74A
:1030D000A9A7BAA76FA178A589A59AA520E030E095
:1030E0004AEF54E40E941F02DC01CB018BA39CA396
:1030F000ADA3BEA36BA17CA18DA19EA120E030E079
:1031000040E85FE30E94790388232CF481E090E09B
:103110009AA389A33FC06BA17CA18DA19EA120E0B1
:103120003FEF4FE757E40E94190318164CF56FA1C3
:1031300078A589A59AA520E030E040E251E40E94FC
:103140001F02DC01CB01BC01CD010E944900DC0162
:10315000CB019AA389A30FC088EC90E098A38F8F2E
:103160008F8D98A10197F1F798A38F8F89A19AA1CC
:1031700001979AA389A389A19AA1009769F714C01E
:103180006BA17CA18DA19EA10E944900DC01CB0115
:103190009AA389A389A19AA19E8F8D8F8D8D9E8DD3
:1031A0000197F1F79E8F8D8F82E063E040E00E94EF
:1031B000A30680E090E0A8E4B3E4898F9A8FAB8FF8
:1031C000BC8F698D7A8D8B8D9C8D20E030E04AEF2D
:1031D00054E40E941F02DC01CB018D8B9E8BAF8BD0
:1031E000B88F6D897E898F89988D20E030E040E826
:1031F0005FE30E94790388232CF481E090E09C8BAC
:103200008B8B3FC06D897E898F89988D20E03FEF41
:103210004FE757E40E94190318164CF5698D7A8D13
:103220008B8D9C8D20E030E040E251E40E941F0233
:10323000DC01CB01BC01CD010E944900DC01CB01C6
:103240009C8B8B8B0FC088EC90E09A8B898B898943
:103250009A890197F1F79A8B898B8B899C890197C1
:103260009C8B8B8B8B899C89009769F714C06D8927
:103270007E898F89988D0E944900DC01CB019C8B4F
:103280008B8B8B899C89988B8F878F8598890197E9
:10329000F1F7988B8F8782E063E041E00E94A306FC
:1032A00080E090E0AAE7B4E48B879C87AD87BE8777
:1032B0006B857C858D859E8520E030E04AEF54E467
:1032C0000E941F02DC01CB018F839887A987BA87F0
:1032D0006F81788589859A8520E030E040E85FE35A
:1032E0000E94790388232CF481E090E09E838D83F3
:1032F0003FC06F81788589859A8520E03FEF4FE751
:1033000057E40E94190318164CF56B857C858D8552
:103310009E8520E030E040E251E40E941F02DC0183
:10332000CB01BC01CD010E944900DC01CB019E8391
:103330008D830FC088EC90E09C838B838B819C8174
:103340000197F1F79C838B838D819E8101979E83EA
:103350008D838D819E81009769F714C06F81788578
:1033600089859A850E944900DC01CB019E838D836B
:103370008D819E819A83898389819A810197F1F752
:103380009A83898382E063E040E00E94A306CB5ADF
:10339000DF4F0FB6F894DEBF0FBECDBFCF91DF91E8
:1033A0001F910F910895DF93CF930F92CDB7DEB7A2
:1033B000898382E061E049810E94A3060F90CF914A
:1033C000DF910895DF93CF930F92CDB7DEB7898356
:1033D00082E060E049810E94A3060F90CF91DF91C7
:1033E0000895DF93CF930F92CDB7DEB7898382E044
:1033F00062E049810E94A3060F90CF91DF9108956A
:10340000DF93CF930F92CDB7DEB7898382E064E07C
:1034100049810E94A3060F90CF91DF910895DF9319
:10342000CF93CDB7DEB76E970FB6F894DEBF0FBE61
:10343000CDBF1E8E1D8EF3C082E063E041E00E948E
:10344000A30680E090E0A8E4B4E4898F9A8FAB8F64
:10345000BC8F698D7A8D8B8D9C8D20E030E04AEF9A
:1034600054E40E941F02DC01CB018D8B9E8BAF8B3D
:10347000B88F6D897E898F89988D20E030E040E893
:103480005FE30E94790388232CF481E090E09C8B19
:103490008B8B3FC06D897E898F89988D20E03FEFAF
:1034A0004FE757E40E94190318164CF5698D7A8D81
:1034B0008B8D9C8D20E030E040E251E40E941F02A1
:1034C000DC01CB01BC01CD010E944900DC01CB0134
:1034D0009C8B8B8B0FC088EC90E09A8B898B8989B1
:1034E0009A890197F1F79A8B898B8B899C8901972F
:1034F0009C8B8B8B8B899C89009769F714C06D8995
:103500007E898F89988D0E944900DC01CB019C8BBC
:103510008B8B8B899C89988B8F878F859889019756
:10352000F1F7988B8F8782E063E040E00E94A3066A
:1035300080E090E0A8E4B3E48B879C87AD87BE87EA
:103540006B857C858D859E8520E030E04AEF54E4D4
:103550000E941F02DC01CB018F839887A987BA875D
:103560006F81788589859A8520E030E040E85FE3C7
:103570000E94790388232CF481E090E09E838D8360
:103580003FC06F81788589859A8520E03FEF4FE7BE
:1035900057E40E94190318164CF56B857C858D85C0
:1035A0009E8520E030E040E251E40E941F02DC01F1
:1035B000CB01BC01CD010E944900DC01CB019E83FF
:1035C0008D830FC088EC90E09C838B838B819C81E2
:1035D0000197F1F79C838B838D819E8101979E8358
:1035E0008D838D819E81009769F714C06F817885E6
:1035F00089859A850E944900DC01CB019E838D83D9
:103600008D819E819A83898389819A810197F1F7BF
:103610009A8389838D8D9E8D01969E8F8D8F8D8D42
:103620009E8D8A3091050CF407CF6E960FB6F894F4
:10363000DEBF0FBECDBFCF91DF910895DF93CF9353
:103640000F92CDB7DEB789838981813069F480918B
:10365000A9018230C1F488E790E061E00E94ED0E9C
:1036600081E08093A9010FC08981823061F480914B
:10367000A901813041F488E790E062E00E94ED0EFC
:1036800082E08093A9010F90CF91DF910895DF939D
:10369000CF93CDB7DEB72C970FB6F894DEBF0FBE31
:1036A000CDBF8B878B858A8381E00E94190981E7D2
:1036B00090E00E94550D81E060E00E94330D89E7A3
:1036C00090E00E94550D19823EC0CE0103960E94E3
:1036D000A01529E531E08A81882F90E0880F991F95
:1036E000880F991F880F991F280F391FCE01039645
:1036F000B9010E94C21D0097B1F481E00E9419092E
:1037000088E890E00E94550D81E00E94D31980E086
:103710000E94E21981E00E947F1681E00E941E1B38
:1037200081E08C8716C08981823050F481E00E944C
:10373000190980E990E00E94550D82E00E947F16F1
:1037400089818F5F89838981833008F4BECF82E0CD
:103750008C878C852C960FB6F894DEBF0FBECDBF3C
:10376000CF91DF910895DF93CF93CDB7DEB72C973C
:103770000FB6F894DEBF0FBECDBF81E00E941909DD
:1037800081E790E00E94550D81E060E00E94330DDA
:103790008BE990E00E94550D1B823AC0CE01049641
:1037A0000E94A0151A8221C029E031E08A81882F69
:1037B00090E0880F991F880F991F880F991F280F75
:1037C000391FCE010496B9010E94C21D009751F421
:1037D00081E00E947F168A810E94471B898389812C
:1037E0008C871BC08A818F5F8A838A818A30E0F24E
:1037F0008B81823050F481E00E94190980E990E0C9
:103800000E94550D82E00E947F168B818F5F8B8313
:103810008B81833018F282E08C878C852C960FB6D2
:10382000F894DEBF0FBECDBFCF91DF910895DF9337
:10383000CF93CDB7DEB76C970FB6F894DEBF0FBE4F
:10384000CDBF81E00E9419098AEA90E00E94550DDF
:10385000CE010F960E94A015CE010F9622EB30E00C
:10386000B9010E94C21D009721F481E00E94F11964
:10387000EFCFCE010F962BEB30E0B9010E94C21DB5
:10388000009721F480E00E94F119E2CFCE010F965B
:1038900025EC30E0B9010E94C21D009721F481E0BF
:1038A0000E94001AD5CFCE010F962CEC30E0B90162
:1038B0000E94C21D009721F480E00E94001AC8CF28
:1038C000CE010F9624ED30E0B9010E94C21D009791
:1038D00021F481E00E941E1BBBCFCE010F962EED7E
:1038E00030E0B9010E94C21D009721F482E00E94DD
:1038F0001E1BAECFCE010F9629EE30E0B9010E941B
:10390000C21D009759F580E00E94D31981E00E9402
:10391000E21980E00E94F11980E00E94001A81E023
:103920000E947F1681E00E94190981E790E00E94C1
:10393000550D81E060E00E94330D8BE990E00E941C
:10394000550D82E00E941E1B80E06C960FB6F89425
:10395000DEBF0FBECDBFCF91DF91089581E00E9401
:10396000190983EF90E00E94550D80E090E8ABE3E9
:10397000B5E48B879C87AD87BE876B857C858D85FD
:103980009E8520E030E04AEF54E40E941F02DC01F3
:10399000CB018F839887A987BA876F8178858985BE
:1039A0009A8520E030E040E85FE30E9479038823B5
:1039B0002CF481E090E09E838D833FC06F817885F9
:1039C00089859A8520E03FEF4FE757E40E9419036D
:1039D00018164CF56B857C858D859E8520E030E042
:1039E00040E251E40E941F02DC01CB01BC01CD0189
:1039F0000E944900DC01CB019E838D830FC088ECBF
:103A000090E09C838B838B819C810197F1F79C8351
:103A10008B838D819E8101979E838D838D819E8175
:103A2000009769F714C06F81788589859A850E940F
:103A30004900DC01CB019E838D838D819E819A8319
:103A4000898389819A810197F1F79A83898381E03B
:103A50000E9419098AEA90E00E94550DF9CE629FF2
:103A6000D001739FF001829FE00DF11D649FE00D76
:103A7000F11D929FF00D839FF00D749FF00D659FD7
:103A8000F00D9927729FB00DE11DF91F639FB00DD6
:103A9000E11DF91FBD01CF0111240895A1E21A2EE5
:103AA000AA1BBB1BFD010DC0AA1FBB1FEE1FFF1FE2
:103AB000A217B307E407F50720F0A21BB30BE40B32
:103AC000F50B661F771F881F991F1A9469F7609579
:103AD0007095809590959B01AC01BD01CF01089533
:103AE00097FB092E05260ED057FD04D0D7DF0AD04C
:103AF000001C38F450954095309521953F4F4F4F1D
:103B00005F4F0895F6F790958095709561957F4F7A
:103B10008F4F9F4F08952F923F924F925F926F92D7
:103B20007F928F929F92AF92BF92CF92DF92EF924D
:103B3000FF920F931F93CF93DF93CDB7DEB7CA1BCE
:103B4000DB0B0FB6F894DEBF0FBECDBF09942A88F9
:103B5000398848885F846E847D848C849B84AA84A1
:103B6000B984C884DF80EE80FD800C811B81AA812E
:103B7000B981CE0FD11D0FB6F894DEBF0FBECDBFF9
:103B8000ED010895FB01DC018D9101908019011078
:0A3B9000D9F3990B0895F894FFCFC4
:103B9A0043616C6C2074686520736572766963652D
:103BAA00004C6F636B656420005479706520506126
:103BBA007373776F7264200077656C636F6D65004D
:103BCA0054727920616761696E20005479706520AA
:103BDA00757365726E616D6520006F70656E6564E0
:103BEA0020004C696768745F6F6E004C696768747F
:103BFA005F6F66660046616E5F6F6E0046616E5F5C
:103C0A006F666600476174655F6F70656E00476135
:103C1A0074655F636C6F736500486F6D655F6C6F89
:103C2A00636B0057726F6E672063686F6963652004
:103C3A00000000000000000000486F73696E000079
:103C4A00004D6F68616D656400486F7373616D0044
:103C5A000053686168640000004B68616C65640029
:103C6A000041686D6564000000416D72000000004B
:103C7A0000526173686164000053686164790000EE
:103C8A000047616E6E6100000030303000000000B5
:103C9A0000313131000000000032323200000000F1
:103CAA0000333333000000000034343400000000D5
:103CBA0000353535000000000036363600000000B9
:103CCA00003737370000000000383838000000009D
:0A3CDA000039393900000000000233
:00000001FF
